:020000040800F2
:10000000980800208902000881340008552B000858
:1000100089330008610F0008453600080000000021
:10002000000000000000000000000000893400080B
:10003000710F000800000000853400088D340008AE
:10004000A3020008A3020008A3020008A3020008FC
:10005000A3020008A3020008A3020008A3020008EC
:10006000A3020008A3020008A3020008A3020008DC
:10007000A3020008A3020008A3020008A3020008CC
:10008000A3020008A3020008A30200080000000069
:10009000000000000000000000000000A3020008B3
:1000A000A3020008A3020008A3020008A30200089C
:1000B000A3020008A3020008A3020008A30200088C
:1000C000A3020008A3020008A3020008A30200087C
:1000D000A3020008A3020008A30200080000000019
:1000E000A3020008A3020008A30200080000000009
:1000F000000000000000000000000000A302000853
:1001000000000000A3020008A3020008A3020008E8
:1001100000000000000000000000000000000000DF
:10012000650F0008A3020008A3020008A30200084C
:10013000A302000800000000000000000000000012
:10014000000000000000000000000000A302000802
:10015000A3020008A3020008A3020008A3020008EB
:10016000A3020008A3020008000000000000000035
:10017000000000000000000000000000000000007F
:1001800000000000A30200080000000000000000C2
:10019000A3020008A302000800F002F800F065F8CE
:1001A00014A696E8000CB244B344DA4501D100F03D
:1001B0005CF8BAE80F000FA696E83000A5EB04053E
:1001C00004EB0607AAEB0704A7F101074FEA151590
:1001D0004FEA3414A4F10104AC4201D300F045F815
:1001E00013F0010F18BFFB1A43F0010300F001F8F0
:1001F000DBE718474048000060480000103A24BF81
:1002000078C878C1FAD8520724BF30C830C144BF7B
:1002100004680C6070470000704700000023002451
:1002200000250026103A28BF78C1FBD8520728BF06
:1002300030C148BF0B607047662904F0738375298D
:1002400000F02A81732900F0CD84002070471FB58B
:1002500004F05BFB00F0CAFC04000020002104F065
:10026000C7FAE0601FBD10B510BD00F0BFFD11461C
:10027000FFF7EDFF03F0E8F900F0DDFD03B4FFF751
:10028000F2FF03BC00F01EFE094880470948004702
:10029000FEE7FEE7FEE7FEE7FEE7FEE7FEE7FEE736
:1002A000FEE7FEE704480549054A064B7047000093
:1002B000493500089901000898020020980800209C
:1002C000980400209804002053EA020C00F0698092
:1002D0002DE9F04B4FF00006002B1FBFB3FA83F55A
:1002E00003FA05F424FA05F65E4012BF1643B2FA8B
:1002F00082F502FA05F4C5F120051EBF22FA05FCBD
:1003000044EA0C04203556EA044C4FEA144418BF62
:10031000641C4FF000084FF00009904271EB030C91
:1003200039D3002919BFB1FA81F701FA07F6B0FAFB
:1003300080F700FA07F6C7F120071EBF20FA07FC76
:1003400046EA0C062037B6FBF4FCA7EB0507103F86
:1003500007F01F0BCBF120062CFA06F60CFA0BFB6C
:1003600044BFB3460026202FA4BF5E464FF0000BCB
:100370005BEA060C08BF4FF0010B19EB0B0948EBC9
:100380000608ABFB027C06FB02CC0BFB03CCC01BBC
:1003900071EB0C01C1E70B46024641464846BDE8F9
:1003A000F08B13B5084318BF4FF0FF300146AFF391
:1003B0000080BDE81C4070470FB41CB50C0007AAB4
:1003C000009007D04142A14202D32044401E01E0E8
:1003D0004FF0FF30074B7B4469460190069800F0D0
:1003E000D4FB0020002C01D0009908701CBC5DF8E3
:1003F00014FB0000D707000070B50446856900684B
:10040000C10601D5302600E02026C00707D070BD08
:10041000D4E9012130469047206A401C20626D1EBD
:10042000F6D570BD70B5044685690078C00707D160
:1004300070BDD4E9012120209047206A401C206231
:100440006D1EF6D570BD70B50C460546012A05D067
:100450002878800600D5EA69002302E0012305E040
:100460005B1C934202D2E05C0028F9D1A869E6182F
:10047000C01AA861286A184428622846FFF7BCFF02
:1004800004E0D5E9012114F8010B9047B442F8D3F8
:100490002846FFF7C7FF70BD2DE9F041064600244E
:1004A00010687529314616A510D0AFF300800028DA
:1004B00002DA404213A507E031688A0701D512A588
:1004C00002E0490704D511A5012401E0AFF3008043
:1004D00000210A2206F1240709E0B0FBF2FCB0FB80
:1004E000F2F302FB1C00303078541846491C0028F7
:1004F000F3D123462A463046BDE8F04100F0D8B893
:10050000000000002D0000002B0000002000000073
:100510002DE9F0474FF0000A89460446C0F820A0B4
:100520002046E1688847002876D0252806D0D4E9FF
:1005300001219047206A401C2062F1E7E1682046D3
:1005400000258847C4F81CA006460027C4F818A058
:100550002A2E09D0304604F043F938B304EB87085B
:10056000303EC8F8186019E059F8041B204604EB27
:1005700087029161E1688847012F064618D1E0693A
:10058000002820DA25F020051DE0D8F8180000EB3F
:10059000800006EB40003038C8F818002046E168BB
:1005A0008847064604F01CF90028EED1012F0AD036
:1005B0002E2E08D12046E16888477F1C0646022F70
:1005C00045F02005C4DBA069002803DA404245F06D
:1005D0000105A061E80701D025F01005B6B1A6F12C
:1005E0004100192802D8203645F400654A463146B4
:1005F000204625604D46FFF71FFE58B1012806D062
:10060000ED1D25F0070000F1080989E704E005F178
:10061000040985E730468AE7206ABDE8F08710B50F
:10062000431C02E010F8011B71B18107FAD14FF0B1
:10063000013202C88C1A8C4314EAC211F9D0C01AD4
:100640000A0603D0C01E10BDC01A10BD0A0401D096
:10065000801E10BD0902FCD0401E10BD4FF00002EC
:1006600000B5134694469646203922BFA0E80C50A8
:10067000A0E80C50B1F12001BFF4F7AF090728BF83
:10068000A0E80C5048BF0CC05DF804EB890028BFFF
:1006900040F8042B08BF704748BF20F8022B11F028
:1006A000804F18BF00F8012B7047704770477047A4
:1006B0002DE9F0470D4699469246044600F124087C
:1006C0000168880604D5E06921F01001216000E08E
:1006D0000120A84201DD471B00E00027A1697A192B
:1006E00002EB0900081AA0612078C00602D4204657
:1006F000FFF782FE002608E0D4E901211AF806007F
:100700009047206A401C761C20624E45F4DB20781E
:10071000C0060AD52046FFF76FFE06E0D4E90121A6
:1007200030209047206A401C2062381EA7F1010744
:10073000F4DC07E0D4E9012118F805009047206AAD
:10074000401C2062281EA5F10105F3DC2046FFF7BE
:1007500069FE2078000602D50220BDE8F08701205E
:10076000FBE72DE9FF4F0C461E464FF0FF378BB0DD
:10077000D2E90001DDF860800A908A46C1F30A558B
:1007800005B93D46002108464FF00000BAF1000FC0
:1007900000F4400005DA00EB80004FF4400101EA6C
:1007A00050004FEA9059B9F1010F00DDB9460A989F
:1007B00050EA4A000ED044F61050A5F2FF354543EA
:1007C0002F14B8F1000F1ED07542291E1EDDC9F18D
:1007D00000021CE0B8F1010F4FF0000001D0302101
:1007E00003E0F24305E02154401CB042FBDB3046FD
:1007F0000022002121540B99C1F80880C1E9002092
:100800000FB0BDE8F08FBD1B6D1CDEE74A4600DA75
:10081000694206A800F074FA06AB93E8070003AB40
:1008200083E8070050460A9903F0FAFB8DE80700B9
:10083000A0F500501F3800900398002D0ADD42F209
:100840001F014A460844002303A90390684603F0A9
:1008500063FE09E0A0F500504A461F38002303A9B3
:100860000390684603F06DFE8DE807000004000C5D
:1008700003D04FF0FF30410800E01046B8F1000F00
:1008800003D00022009215461EE0751E05D400F02C
:10089000B1F9303262556D1EF9D5B34601220843D5
:1008A00002D000227F1C04E02078302801D10022F1
:1008B0007F1E002A099784D01DE0112D07DA00F071
:1008C00099F9303262556D1C50EA0102F5D10843A6
:1008D00002D00098C8B10EE00021681E05E0235C3C
:1008E000625C63542254401E491C8142F7DBAB46D4
:1008F000A81B401E0990002004F80B000B98099AD1
:10090000C0F80880C0E9002B7AE711264FF00008F4
:1009100057E72DE9F04F88460446D21D22F0070123
:1009200091B0D1E90001CDE90A0103F041FF02468F
:100930000B98C00F01D02D2007E02068810701D55A
:100940002B2002E0202101EAC000032A099001D0F7
:10095000072A05DB03464146204600F091F90BE1EA
:100960002078800601D5E06900E00620B8F1650F27
:10097000814606D0B8F1660F18D0B8F1670F70D174
:1009800031E00020B9F1110F009001DB112301E0EB
:1009900009F101030AAA01A90CA8FFF7E2FEDDE9AB
:1009A0000C70002609F10105834647E001204B4603
:1009B00000904FF000470AAA01A90CA8FFF7D1FE4A
:1009C000DDE90DB00C995D46002610B909F1010072
:1009D0000D18B9EB050003D4C0F1FF3609F101058C
:1009E000A5EB09002BE0B9F1010F01DA4FF0010985
:1009F0000020B9F1110F0090484601DD112300E0FD
:100A000003460AAA01A90CA8FFF7ABFEDDE90C70AA
:100A10004D4600268346207800070AD4AB4500DA0D
:100A20005D4601A8012D04DD411911F8011C302992
:100A300007D04F4502DA17F1040F04DA012082468D
:100A40000FE06D1EEEE7002F02DCED1B3E4403E0DD
:100A5000781CA84200DD7D1CB81B00F1010A4FF094
:100A600000472078000703D4AA4501DB4FF0FF3A86
:100A70000021B7F1004F0DF143088DF8431024D049
:100A800002202B23002F01DA7F422D230A21021E90
:100A9000A0F1010000DC5FB197FBF1FC97FBF1F2E4
:100AA00001FB1C7C17460CF1300C08F801CDEEE779
:100AB000A8F1010003702188090501D5452100E056
:100AC0006521A0F1010800F8011C09980FA9A1EB0C
:100AD0000807FF1D00B10120411901EBEA70A1696F
:100AE0003844081A401EA0612078C00602D420466F
:100AF000FFF782FC099828B1D4E901219047206AC8
:100B0000401C20622078C00622D52046FFF774FCE6
:100B10001EE0002E04DBB34502DD01A8805D00E08D
:100B20003020D4E901219047206A401C2062761CC5
:100B3000AAF101005FEA000A0AD100F057F8C06884
:100B40000168405CD4E901219047206A401C206282
:100B5000281EA5F10105DCDC07E0D4E9012118F825
:100B6000010B9047206A401C2062381EA7F1010744
:100B7000F3DC2046FFF756FC032011B041E60000ED
:100B800001694A1C02610878704700B58FB0CDE951
:100B900001310021059105497944CDE90310114641
:100BA0006846FFF7B5FC0FB000BD0000E5FFFFFF92
:100BB000D1E900239A4202D2531C0B601070704797
:100BC00010B5436913B1AFF3008001E0FFF73BFCC0
:100BD000012010BD127800F124010A7000224A7031
:100BE0000122EDE711684FF0FF32E9E70048704756
:100BF0005000002030B5B0F10A0271F100034FEA55
:100C0000900E4EEA817EB0EB0E0061EB91014FEA4F
:100C1000101E4EEA017E10EB0E0041EB11114FEA5F
:100C2000102E4EEA016E10EB0E0041EB11214FEA3F
:100C3000104E4EEA014E10EB0E0041EB11414018F0
:100C400041F100014FEAD00040EA41704FEAD10182
:100C50004FEA810444EA907410EB800544EB0104F0
:100C60006D1944EB0404521BA3414FF0000348BF2D
:100C70000A3200D530BD401C41F1000130BD0000FA
:100C80002DE9F0411F46044603260168072A01F4B6
:100C9000006004DB08B116A505E016A503E008B165
:100CA00015A500E015A521F010002060A069C01E68
:100CB000A0610FB1401EA0612046FFF79DFB4FB120
:100CC000D4E9012138469047206A401C2062C01CAC
:100CD000206206E0206AFAE7D4E9012115F8010B49
:100CE0009047761EF8D22046FFF79CFBBDE8F081C6
:100CF0004E414E006E616E00494E4600696E6600C0
:100D00002DE9F047814616468AB0354878440DC82B
:100D10008DE80D0032487844801C03AC0DC884E88F
:100D20000D0041F69B300844372190FBF1F290FB17
:100D3000F1F5A5F1800501FB12041B3C02D56442CC
:100D4000012000E00020DFF898A080460027FA4448
:100D5000AAF1BE0A0EE0E0070AD03246684607EB69
:100D6000470101230AEB810103F0EBFB8DE807004B
:100D700064107F1C002CEED1194F7F44AE3F19E068
:100D8000E80715D007EB04100DF1180A90E80E00E3
:100D90008AE80E00C068F04201D1981908903246E6
:100DA000012306A903A803F0CCFB03AB83E80700EB
:100DB0006D10641C002DE3D14FF0010332466946EB
:100DC000B8F1000F03A802D003F0A6FB01E003F086
:100DD000B8FBC9E90001C9F808200AB0BDE8F087EE
:100DE000943C000000487047300000207546FFF733
:100DF000F9FFAE4605006946534620F007008546D8
:100E000018B020B5FFF74EFABDE820404FF00006BD
:100E10004FF000074FF000084FF0000BAC46ACE875
:100E2000C009ACE8C009ACE8C009ACE8C00921F0D1
:100E300007018D46704710B50446AFF30080204689
:100E4000BDE81040FFF71ABA30B44FF0013C50F83B
:100E5000042B51F8043BCCFA52F4D51A20D1FCB93A
:100E600050F8042B51F8043BCCFA52F4D51A17D1A0
:100E7000B4B950F8042B51F8043BCCFA52F4D51A0B
:100E80000ED16CB950F8042B51F8043BCCFA52F453
:100E9000D51A05D1002CDAD030BC4FF000007047D5
:100EA00029BAB1FA81F111F01801D1F12000844082
:100EB000F2D1CA40CB4012F0FF0213F0FF0330BC66
:100EC000D01A704701491820ABBEFEE72600020089
:100ED000704700000146806B036C026C13F0500FEA
:100EE00008D0D20648BF00F089B9806BC26C0846B2
:100EF000104700BF42F40071016401688A6812F073
:100F0000405F01D000F076B9027E002AFAD1CA6AA9
:100F100012F4700F02D08A685205F3D44A6822F0A6
:100F200020024A60016C21F480710164016CC904E3
:100F300048BF00F05FB9016C41F00101016400F0AD
:100F400059B90000806B40210164416C41F00401FB
:100F5000416400F053B90000806B00F04DB900000F
:100F6000FEE7000040F23410C2F2000000F016BBB1
:100F70007047000072B600BFFEE70000F0B581B018
:100F800040F27027044643F60C46C2F200070020E8
:100F9000C4F20206F86100F013FF3168C9031DD4E2
:100FA0003068C0071CBF01203060306810F4F97F42
:100FB00032D03068C00633D43068800639D4306807
:100FC00040063FD43068000645D43068C0054BD495
:100FD0003068800752D4012001B0F0BDC4B105468D
:100FE000601C10D13068C003DAD53068C00344BF3C
:100FF00030685FEAC030D3D53068C003F2D4CFE7A1
:101000003068C003CCD500F0DBFE401BA042F7D90E
:10101000032001B0F0BD00BF002001B0F0BD00BF53
:10102000F86940F01000F8611020306030688006E8
:10103000C5D5F86940F00800F861202030603068BC
:101040004006BFD5F86940F00400F86140203060E8
:1010500030680006B9D5F86940F00200F8618020D8
:1010600030603068C005B3D5F86940F00100F86120
:101070004FF48070306030688007ACD5F86940F07C
:101080002000F86102203060012001B0F0BD0000B6
:10109000F0B581B00022009290F83C20012A03D1E3
:1010A000022001B0F0BD00BF0F6801231FFA87FCCA
:1010B00080F83C304FEA4C0307EB470213FA87F302
:1010C0001024092F88BFA3F11E0288BF0C240368D7
:1010D0004FF0070E1E590EFA02F5AE431E518E68F0
:1010E0001D5906FA02F22A431A514968062907D8FF
:1010F00001EB81014A1F194651F8345F0FE000BF30
:101100000C2901EB810105D8A1F12302194651F800
:10111000305F04E0A1F14102194651F82C5F1F260F
:10112000964025EA06060E600CFA02FE42F2043CE6
:101130000A68C4F2010CACF5417642EA0E02B342F1
:101140000A6005D0002180F83C10002001B0F0BDFD
:101150001221112FC1F2000118BF8F423AD1DCF8E1
:1011600000208F4222F48002CCF80020DCF800201E
:1011700042F40002CCF80020E4D140F20801C2F2AF
:10118000000109684DF68362C4F21B32A1FB021212
:10119000910C01EB81014900009100990029D1D007
:1011A00000990139009100990029CBD000990139AB
:1011B000009100990029C5D000990139009100994A
:1011C0000029BFD000990139009100990029E7D189
:1011D000B8E700BF122FB5D1DCF8001021F40001F0
:1011E000CCF80010DCF8001041F48001CCF80010BD
:1011F000A8E700007047000070470000704700003B
:10120000002804BF0120704710B5016C00293DD0B3
:10121000016CC90645D4016C41F2021291430231BE
:1012200042F204320164C4F20102116821F4403137
:101230001160136890E812102343D0F810E0136097
:101240004A68012422F480724A604A68C0F6007439
:1012500042EA0E224A604A6822F040724A604A68B6
:1012600042EA0C024A608A6822F400628A60C2681C
:101270008B681A438A60826A8B68A24223F070638B
:101280008B608B6810D123F0405216E0044600F0CA
:1012900065F820460021616484F83C10016CC906A1
:1012A000B9D5012153E000BF1A438A608A6822F051
:1012B00040528A60C26A8B681A438A608A6822F048
:1012C00002028A608A68037E90F8204042EA430264
:1012D0008A604A6884B142F400624A604A684EF209
:1012E000000322F460424A60426ACFF6FF734C6802
:1012F00003EB4232224301E022F400624A60CA6AF0
:1013000040F2000C22F47002CA62C3694269CFF64F
:10131000F07CCC6A0CEB03532343CB628B6823F441
:1013200000738B6090F830308C6844EA43238B6004
:101330008B6823F480638B608B6843EA82228A6027
:1013400000214164026C012363F301020264002264
:1013500080F83C20BDE81040084670472DE9F04178
:1013600086B0044642F200070068C4F20107002676
:10137000B8420596CDE903660296019602D006B002
:10138000BDE8F08143F630000096C4F202004169E6
:101390000DF1040841F4807141614169032501F4B4
:1013A0008071009100990096016841F0010101608F
:1013B000016801F00101009100990096016841F077
:1013C000020101600068414600F0020000900098B0
:1013D0001320019007F56040CDE9025600F01AFC99
:1013E00007F564404146CDE90155039600F012FC33
:1013F00040F2341546F21040C2F20005C4F2020079
:101400004FF48061C5E9000605F110004FF48052E9
:101410004FF480434FF480778EC02846C5E90266BA
:10142000C5E9086600F09CF9002818BFFFF7A2FD87
:10143000A563AC6306B0BDE8F0810000B0B582B032
:101440000023019390F83C30012B03D1022002B01D
:10145000B0BD00BF8E460123016880F83C308B6828
:101460009446DB0729D18B684DF6836443F0010372
:101470008B6040F20803C2F200031B68C4F21B3405
:10148000A3FB0434A30C03EB43030193019BA3B11F
:10149000019B013B0193019B7BB1019B013B0193AC
:1014A000019B53B1019B013B0193019B2BB1019B1C
:1014B000013B0193019B002BEAD18B68DB0503D52F
:1014C0008B6823F480738B608C68036CE4070BD10A
:1014D00043F01001016400F14401002001220B6877
:1014E0001A430A6002B0B0BD40F20174A34303F591
:1014F000807303644B685B0504D5036C012464F3BB
:101500000D330364046C0023E4044FF0000444BF73
:10151000446C24F00604446480F83C30836B40F64D
:10152000D56440F65972C0F60004C0F60002C3E963
:101530000F4240F64572C0F60002DA646FF02202F4
:101540000A604A6842F2000442F080624A608A6897
:10155000054642F480728A604C31184672466346F2
:10156000C4F2010400F0AEF9D4F804232968D206CD
:1015700004D0A1420AD002B0B0BD00BF51F8082F7C
:1015800012F0405FF7D14FF08042A8E7A26812F056
:10159000405FF0D108314FF08042A0E7F0B581B054
:1015A0000021009140F20801C2F200010B68D0E96D
:1015B000166148F2B51537680822C1F64E358A40E3
:1015C0003A42A3FB05350CD003681C68640708D5B4
:1015D0001C6824F004041C60B260426D42F00102F9
:1015E000426501228A403A4208D003685B691B06C3
:1015F00004D5B260426D42F00202426504228A4084
:101600003A4208D003681B689B0704D5B260426D5C
:1016100042F00402426510228A403A4219D0016821
:101620000B681B0715D5B2600B680A685B0309D409
:10163000D20509D40A6822F008020A60016C29B9AF
:1016400007E000BF110341D4016C11B10446884783
:101650002046C26D202101FA02F33B4243D00168CB
:101660000F68FF063FD5B36090F835700B68052F03
:101670001CD123F016030B604B6923F080034B61F0
:10168000036C0BB9836C1BB10B6823F008030B6070
:101690003F219140B160012180F83510016D002299
:1016A000002980F8342054D158E000BF0A685B0359
:1016B00010D4D20512D40A6822F010020A60012167
:1016C00080F83510002180F8341007E0816C002983
:1016D000BCD1BEE7110301D4416C00E0C16B11B174
:1016E000044688472046416DC1B3416DC9072ED0DD
:1016F000052180F835100168AA0A0B6823F0010360
:101700000B60009B0133934200931AD80B68DB07F0
:1017100017D0009B01339342009312D80B68DB076C
:101720000FD0009B0133934200930AD80B68DB076C
:1017300007D0009B01339342009302D80B68DB076C
:10174000DFD1012180F83510002180F83410C16C00
:1017500021B101B0BDE8F040084700BF01B0F0BDC5
:101760002DE9F041044600F02BFBECB105460220C8
:1017700084F835000020216884F83400086820F0DF
:101780000100086021680868C00711D000F018FB4C
:10179000401B0528F6D9032520230320636584F820
:1017A0003550BDE8F08100BF0120BDE8F08100BFE9
:1017B000086848F23F02CFF21002D4E9013500EA8E
:1017C000020C04F10C0898E8C10143EA0C032B4316
:1017D0001843D4E9072E304338431043626A40EA85
:1017E0000E00042A40EA08031CD1206BD4E90A2E1B
:1017F00040EA0E00184308604869BEF1000F20F06F
:10180000030040EA020040F0040C11D0B8F5005F7C
:1018100036D0B8F1000F45D1022A46D0012A3BD07C
:1018200032B942E00B60486920F0070040EA020C40
:1018300001F0F8004AF6AB221038CAF6AA22A0FB43
:1018400002231A0944F6E413C1F814C0C0F60003D9
:101850009A5C40F2FF335F284FF03F0021EA03011A
:1018600000FA02F088BF0431C4E916128860002330
:1018700001250020636584F83550BDE8F08100BF84
:10188000032AD5D8012540230120DFE802F0030E0A
:10189000030500BF82E700BFAEF1C070B0FA80F070
:1018A000400904E0032A04D3C2D1CEF3006000282B
:1018B000BED0012540230120636584F83550BDE882
:1018C000F081000090F834C0BCF1010F04BF022089
:1018D000704770B54FF0010C80F834C0D0F858E074
:1018E00090F835C0BCF1010F38D14FF0020C80F8F0
:1018F00035C04FF0000CC0F854C0D0F800C0846868
:10190000056CC06DDCF80060402C26F48026CCF815
:101910000060CCF804300B4604BF13460A463F2152
:1019200001FA00F0CCF80830CCF80C20CEF8080012
:10193000DCF8000040F01600CCF800002DB1DCF817
:10194000000040F00800CCF80000DCF8000040F097
:101950000100CCF80000002070BD00BF002180F81D
:101960003410022070BD00002DE9F04381B040F238
:101970007028C2F2000898F81820012A04D1022029
:1019800001B0BDE8F08300BF0546012088F81800CB
:101990004CF250308946FFF7F1FA28B1002188F85F
:1019A000181001B0BDE8F0834FF0FF30C9F8000017
:1019B000286843F610470128C4F202071CD12869A1
:1019C0003968000221F440713960396880B241F011
:1019D000040139603968084340F4803038604CF2C3
:1019E0005030FFF7CBFA396821F00401396057F81D
:1019F000101C89053BD452E0D5E902603044864290
:101A000030D2F000841C00BF28694FF44072C1B28C
:101A1000032939684FEA002021F4407139603968A0
:101A200038BF82B241EA02003860386820F0F8001E
:101A30003860386820433860386840F48030386057
:101A40004CF25030FFF79AFA3968002821F0FA0179
:101A5000396047D1D5E9020101360844864204F1D4
:101A60000804D1D3002057F8101C890517D557F862
:101A7000101C21F4007147F8101C57F8101C41F499
:101A8000006147F8101C57F8101C21F4006147F85A
:101A9000101C57F8101C41F4007147F8101C57F83F
:101AA000101C49057FF57AAF57F8101C21F48061AE
:101AB00047F8101C57F8101C41F4805147F8101CCF
:101AC00057F8101C21F4805147F8101C57F8101CCF
:101AD00041F4806147F8101C002188F8181001B00B
:101AE000BDE8F083C9F8006057F8101C8905BED422
:101AF000D5E7000043F61041C4F20201086840F047
:101B0000004200200A6070472DE9F04140F2702445
:101B1000C2F20004277E012F04BF0220BDE8F0813D
:101B20000546012020764CF2503098460F46164666
:101B3000FFF724FA20B100212176BDE8F08100BF33
:101B40002A46022D43F61045C4F202051ED0012A92
:101B5000314638460CD03ABB2A6822F440722A60DB
:101B60002A682A602A6842F001022A6001702CE08B
:101B70002A6822F440722A602A6842F480722A603D
:101B80002A6842F001022A6001801EE0286820F4E1
:101B900040702860286840F400702860286840F091
:101BA000010028603E6010E02A6822F440722A603A
:101BB0002A6842F440722A602A6842F001022A60D0
:101BC0000160BFF36F8FC0F804804CF25030FFF714
:101BD000D5F9296821F00101296000212176BDE8AD
:101BE000F081000043F60440C4F20200C168B1F184
:101BF000FF3FC4BF0020704740F22311C4F2675179
:101C0000016048F6AB11CCF6EF510160C068C00F1F
:101C1000704700002DE9F04F83B000F1200200F181
:101C20003E4741F20005009207F1FF77C4F202053A
:101C300007224FEAB726A84208BF042200254FF02A
:101C400000084FF00009042E38BF4FEAB722019276
:101C50000AE000BF09F1010908F10208B9F1100F0B
:101C600005F1040500F0A2800F68012202FA09FEC6
:101C700017EA0E0AEED0D1F804C003220CF00307D5
:101C80007E1E02FA08F4012E6FEA040B12D8846853
:101C9000CE6804EA0B0406FA08F63443846044680C
:101CA00024EA0E06CCF3001404FA09F42643466035
:101CB00004E000BF032F01D103271EE0C6688C6833
:101CC00006EA0B0604FA08F42643022FC66014D174
:101CD0006FF00302009E02EA590756F807C005F0AC
:101CE0001C040F220B69A2402CEA0202A3401A43F3
:101CF000F251D1F804C00CF00307026807FA08F3A8
:101D000002EA0B021A431CF4403F0260A2D00022F8
:101D100043F644030292C4F202031A6843F60044F5
:101D200042F480421A601A68C4F2010402F480424C
:101D30000292029A29F003024FF6084C2244CFF691
:101D4000FF7C52F80C3005F00C070F26BE40B34361
:101D5000019E06FA07F73B4342F80C30A2684B6835
:101D600042EA0A0743F60C4CDE0258BF22EA0A0791
:101D7000A760C4F2010CDCF800209E0242EA0A07C8
:101D800058BF22EA0A07CCF8007062689E0342EA54
:101D90000A0758BF22EA0A0767602268DB0342EAA3
:101DA0000A0758BF22EA0A07276053E703B0BDE8D5
:101DB000F08F0000002A08BF09048161704700000D
:101DC00040F29020C2F2000000687047002804BF73
:101DD00001207047F0B581B0044690F83D0028B965
:101DE000002084F83C00204600F090F9242084F87C
:101DF0003D002068016821F001010160016841F4A3
:101E000000410160016821F40041016000F022FB03
:101E1000636848F2A16CC0F2010C40F60011C0F2F8
:101E20003D0163453CBF48F28041C0F21E0188423B
:101E300002D2012001B0F0BD4DF68361C4F21B3126
:101E4000A0FB01122168970CD1F804E04FF49676BC
:101E50002EF03F0545EA92454D60774348F6381627
:101E60000D6AC0F24106A7FB067625F03F076345E1
:101E700038BF960C721C3A430A62CA6948F2A066DF
:101E80004CF6FF77C0F20106B34222EA07020BD8F4
:101E900001385B00B0FBF3F001306FF31F30042812
:101EA00098BF04201BE000BFA768013857B119276D
:101EB0007B43B0FBF3F001306FF31F3070B100F5DE
:101EC000804007E003EB4303B0FBF3F001306FF316
:101ED0001F3018B100F5004001E000BF01201043A1
:101EE000C8610868D4E9072320F0C00010431843F4
:101EF0000860886848F2FF3204F10C0790438CCFE9
:101F000018431043A6698860C86820F0FF00384372
:101F10003043C860086840F00100086000202021BC
:101F2000206484F83D10206384F83E0001B0F0BDC9
:101F30002DE9F04383B01E46174689460446FFF755
:101F40003FFF94F83D10202924D10546206800BFAA
:101F5000816989071AD5FFF733FF411B20681A29C9
:101F6000F6D381698907F3D500202021206384F806
:101F70003D1084F83E00216C41F02001216484F87A
:101F80003C00022003B0BDE8F08300BF94F83C1091
:101F9000012903D1022003B0BDE8F083012184F8B8
:101FA0003C100168C90703D1016841F001010160DB
:101FB000016840F2020821F400610160212184F8E7
:101FC0003D10102184F83E1000212164676266856F
:101FD000618DC0F201082185A8F10211E162E16A78
:101FE0000A9E11F5803F18BF01291DD1016841F4F7
:101FF0008071016020464FF00111002233460095A8
:1020000000F008FE50B120680068C00544BF4FF4DE
:1020100000702064012003B0BDE8F0832069B0F5B2
:10202000804F07D1FE2015E00829DFD0216B12294F
:10203000DCD0DFE7062000EAD9102168F030086123
:1020400008F10601204632462B4600F0C9FE002862
:10205000E0D1FF20216800EA0900086120464146DE
:1020600032462B4600F0BCFE0028D3D1002002905F
:1020700020684169029180690290029806E000BFE1
:10208000204631462A4600F067FD18BB208D68B314
:10209000204631462A4600F00FFFD8B9606A216811
:1020A000024612F8013B0B616262628D013A628561
:1020B000228D531E23854F697F07E1D51B04DFD096
:1020C000437802300B616062608D01386085901E3C
:1020D0002085D5E7206C04289CD12068016841F454
:1020E00000710160012003B0BDE8F0832068016841
:1020F00041F400710160202084F83D00002084F844
:102100003E0084F83C0003B0BDE8F083B0B586B073
:1021100045F200410068C4F20001002488420594A1
:10212000CDE903440294019402D006B0B0BD00BFD3
:1021300043F630050094C4F20205286840F002001E
:102140002860286800F0020000900098C0200190EC
:102150001220CDE90204032004900420059001F52B
:10216000D83001A9FFF756FD0094286940F400100B
:102170002861286900F400100090009806B0B0BDF6
:1021800040F2000040F29021C2F20000C2F20001D1
:1021900000780A68104408607047000080B543F674
:1021A0000040C4F20200016841F40071016001685E
:1021B00041F480610160016841F480710160032095
:1021C00000F086F80F2000F005F800F027F8002056
:1021D00080BD000070B540F20006C2F2000640F279
:1021E00008013278C2F200014FF47A730968B3FB38
:1021F000F2F20446B1FBF2F1084600F061FB0F2C4D
:102200004FF0010508D838B94FF0FF3021460022C1
:10221000002500F031F87460284670BD82B00020BF
:1022200043F640010190C4F202014A6842F4804240
:102230004A604A6802F480420192019A009008685C
:1022400040F080500860086800F0805000900098CE
:1022500002B07047002848BF704700F01F010122FC
:1022600002FA01F11C2202EAD0004EF20012CEF274
:10227000000281507047000010B54EF60C5CCEF2A3
:10228000000CDCF80030C3F3022E8EF00704042C9F
:1022900028BF0424BEF103034FF0FF3E0EFA04F4FE
:1022A00038BF0023A14399400EFA03F39A43114328
:1022B00000F00F0200F160430901043A03F56443A2
:1022C0006244002848BF02F10C03197010BD0000E1
:1022D0004EF60C51CEF200010A684FF6FF031A4089
:1022E00060F30A2242F0806040F0FD7008607047A1
:1022F000002804BF012070472DE9F04143F608088B
:10230000C4F202080446D8F8F8030D4600F00700AE
:10231000814207D988F8F853D8F8F80300F007008D
:10232000A84277D12068810717D5410705D5D8F88D
:10233000001041F4E051C8F80010010705D5D8F8A5
:10234000001041F46041C8F80010D8F80010A268ED
:1023500021F0F0011143C8F80010C00740D1D8F8AF
:10236000F80300F00700854207D288F8F853D8F840
:10237000F80300F00700A8424CD12068410707D5B8
:10238000D8F80010E26821F4E0511143C8F80010B9
:10239000000708D5D8F80000216920F4604040EA21
:1023A000C100C8F8000000F07DF8D8F8001044F62D
:1023B000BC12C1F30311C0F60002515C40F20802E6
:1023C00020FA01F140F20400C2F200000068C2F2FB
:1023D00000021160FFF7FEFE0020BDE8F08100BFA3
:1023E0006068811E022907D258F8081C89015CBF69
:1023F0000120BDE8F08111E0012807D158F8081C40
:1024000089035CBF0120BDE8F08107E058F8081C93
:10241000890703D40120BDE8F08100BFD8F800107F
:1024200021F003010843C8F80000FFF7C9FC064685
:1024300041F28837D8F80000616800F00C00B0EB7A
:10244000810F8CD0FFF7BCFC801BB842F2D903206F
:10245000BDE8F08140F2080043F60801C2F2000036
:10246000C4F202010068096844F6CC12C1F382216B
:10247000C0F60002515CC8407047000040F20800FE
:1024800043F60801C2F20000C4F2020100680968C4
:1024900044F6CC12C1F34231C0F60002515CC84090
:1024A0007047000010B543F60404C4F202046168EA
:1024B000C1F3810142F20040C0F2F400DFE801F014
:1024C00002040A0210BD00BF41F20020C0F27A00EF
:1024D00010BD00BF216801F03F0221682368490256
:1024E000C3F3881106D4A1FB00010023FDF7ECFE25
:1024F00007E000BF41F20020C0F27A004843B0FB81
:10250000F2F021680222C1F3014102EB4101B0FB6C
:10251000F1F010BD002804BF012070472DE9F04103
:1025200082B00446007843F60006C007C4F20206F3
:102530000CD0B06800F00C00042840F081803068B6
:10254000800303D56068002800F068812078800748
:102550001BD5B06810F00C0F09D0B06800F00C006B
:10256000082840F087807068400200F1838030685E
:10257000800703D5E068012840F050813068216968
:1025800020F0F80040EAC10030602078000713D442
:10259000207840072AD4A569002D00F03A81B06860
:1025A00000F00C00082840F0A580012D40F00E81BD
:1025B000012002B0BDE8F0816069002800F082804F
:1025C0000020C4F247200121C0F8801EFFF7F8FB6D
:1025D000054600BF706F8007DAD4FFF7F1FB401BA0
:1025E0000228F7D9032002B0BDE8F081306C5FEA21
:1025F000C0080AD400200190306C40F08050306454
:10260000306C00F080500190019847F20007C4F24E
:1026100000073868C00547D4386840F480703860D7
:10262000FFF7CEFB054600BF3868C0053CD4FFF776
:10263000C7FB401B0228F7D9032002B0BDE8F08198
:10264000B06800F00C00082803D1706840023FF524
:1026500076AF61683068B1F5803F07D0B1F5A02F43
:1026600040F09A8040F480203060306840F4803040
:1026700030609AE0E068002840F20000C4F2472091
:102680005CD001210160FFF79BFB054630688007A5
:102690003FF574AFFFF794FB401B0228F6D90320E7
:1026A00002B0BDE8F08100BFA168306F012905D0FC
:1026B000052955D140F004003067306F40F001002B
:1026C000306756E00020C4F247200021C0F8801E89
:1026D000FFF776FB054600BF706F80077FF558AFA8
:1026E000FFF76EFB401B0228F6D9032002B0BDE8BD
:1026F000F08100BF0027C4F2472700203866FFF7AB
:102700005FFB022D05460DD13068800140F18A80C3
:10271000FFF756FB401B02284FF00300F4D902B02C
:10272000BDE8F0813068800173D5FFF749FB401B9D
:1027300002284FF00300F5D9F1E700BF0021016046
:10274000FFF73EFB054600BF306880077FF51DAFF1
:10275000FFF736FB401B02284FF00300F4D9DEE7F9
:1027600020F001003067306F002920F0040030674E
:102770007AD0FFF725FB054641F28837306F800796
:1027800000F18480FFF71CFB401BB842F6D9032000
:1027900002B0BDE8F08100BF20F4803030603068C6
:1027A000002920F4802030607AD0FFF709FB05462D
:1027B000306880033FF5CAAEFFF702FB401B642878
:1027C000F6D9032002B0BDE8F08100BF7068E1696E
:1027D00000F480028A4221D1216A00F03F028A423D
:1027E0001CD147F6C071626A0140B1EB821F15D15E
:1027F000A16A4FF6FF73C903994300F44032A1F573
:1028000080318A420AD1E16A00F07060B0EB016F5A
:1028100004D1002002B0BDE8F08100BF012002B069
:10282000BDE8F08104F11C052FCD084340EA821079
:10283000D9034FF6FF729143A1F5803140EA05605C
:102840000843706001203866FFF7BAFA044600BFFB
:1028500030688001DDD4FFF7B3FA001B02284FF087
:102860000300F5D95BE700BFFFF7AAFA054641F27E
:10287000883700BF306F800708D5FFF7A1FA401BEB
:10288000B8424FF00300F5D949E700BFB8F1000F97
:102890003FF581AE306C20F0805030647BE600BFA5
:1028A000FFF78EFA054600BF306880037FF54EAE15
:1028B000FFF786FA401B64284FF00300F4D92EE797
:1028C000411E0020B0EB116F1CBF012070474EF27B
:1028D0001002CEF2000251604EF62351CEF20001FA
:1028E000F0230B700721906011607047002804BF2F
:1028F0000120704710B5044690F8410028B9002027
:1029000084F84000204600F021F8242084F841009B
:102910002068C16821F40051C160204600F01EFE0D
:102920002068016921F490410161416921F02A0187
:102930004161C16841F40051C16000202021606400
:1029400084F8411084F84210606310BD80B586B0F1
:1029500044F200410068C4F200010022884205925E
:10296000CDE903220292019202D006B080BD00BFE1
:1029700043F630000092C4F20200036943F40033CE
:102980000361036903F400330093009B0092036822
:1029900043F001030360006800F00100009000981C
:1029A0000C2001900220CDE90202032004900720B0
:1029B000059001F5DE3001A9FFF72CF906B080BDC6
:1029C0002DE9F04381B0044690F84100202809D158
:1029D00000294FF0010018BF002A07D101B0BDE85F
:1029E000F08300BF022001B0BDE8F08300206064E6
:1029F00021201D460E4684F841001746FFF7E0F9F6
:102A0000A784E784A1688146B1F5805F02D120697F
:102A100000285DD037460020E28C2168002A5DD076
:102A20006A1C24D0002D4AD0804600BF08680006EA
:102A300008D4FFF7C5F9A0EB0900A8427AD82168AD
:102A4000C868F3E717B117F8010B04E038F8020B78
:102A500000276FF35F204860E08C0138E084E08C51
:102A60000028E3D13AE000BF0A68120609D40A68D8
:102A7000120606D40A6812065CBF0A685FEA0262A0
:102A8000F2D51FB117F8012B05E000BF30F8022B7B
:102A900000276FF35F224A60E28C013AE284E28C05
:102AA000002AE4D11AE000BF30F8022B00276FF3B0
:102AB0005F224A60E28C013AE284E28C72B10A68D9
:102AC000120635D5002FEFD017F8012BF1E700BF24
:102AD00000273046E28C2168002AA1D10868400610
:102AE0001ED42DB3681C14D1086840062AD4086887
:102AF000400627D40868400624D4086840064FF0F2
:102B00000000F1D50DE000BF2068C16800684006F4
:102B100018D4FFF755F9A0EB0900A842F4D909E051
:102B20000020202184F8411001B0BDE8F08300BFEF
:102B3000FFF746F90320202184F8411001B0BDE8D9
:102B4000F08300BF0020202184F8411001B0BDE8CF
:102B5000F0830000FEE7000070B50368044653F8F8
:102B6000140F400711D40E46481C29D086BB00BF65
:102B70001868400527D4FFF723F9236853F8140F8A
:102B8000400737D518684007F2D5002070BD00BF58
:102B900018684007F9D41868400514D4186840072D
:102BA000F3D4186840050ED418684007EDD41868AF
:102BB000400508D4186840074FF0000048BF70BDBA
:102BC00018684005E4D56FF480601860042012E0B6
:102BD000154603E053F8140F4007D6D41868400593
:102BE000F1D4FFF7EDF8401B2368B042F2D95869E1
:102BF0004007EFD4202000212022216384F83D20CB
:102C000084F83E10226C10432064012084F83C10AC
:102C100070BD00002DE9F041054600681E461446CF
:102C200001F47F0201338FB242D0DDF81880B2F593
:102C3000803F40F0878040693840C01BB0FA80F088
:102C40004009844240F0C8804EB924E040693840D1
:102C5000C01BB0FA80F04009844240F0BD80FFF70D
:102C6000AFF8A0EB08012868B142EFD941693940BB
:102C7000C91BB1FA81F149098C42E7D19BE000BF41
:102C800040693840C01BB0FA80F0400984424FF0E0
:102C9000000040F0A280FFF793F8286841693940AE
:102CA000C91BB1FA81F149098C42E9D183E000BF27
:102CB000B2F5803F24D100BF41693940C91BB1FA48
:102CC00081F149098C4240F0878041693940C91B34
:102CD000B1FA81F149098C4240F07E804169394066
:102CE000C91BB1FA81F149098C4275D1416939405A
:102CF000C91BB1FA81F149098C42DDD06CE000BFFB
:102D000081693940C91BB1FA81F149098C4263D10B
:102D100081693940C91BB1FA81F149098C425BD103
:102D200081693940C91BB1FA81F149098C4253D1FB
:102D300081693940C91BB1FA81F149098C42DFD060
:102D40004AE000BF80693840C01BB0FA80F04009FB
:102D5000844241D146B923E080693840C01BB0FAB3
:102D600080F04009844237D1FFF72AF8A0EB080130
:102D70002868B142F0D981693940C91BB1FA81F1A3
:102D800049098C42E8D116E080693840C01BB0FA8E
:102D900080F0400984424FF0000018BFBDE8F08188
:102DA000FFF70EF8286881693940C91BB1FA81F133
:102DB00049098C42E8D100202021286385F83D1084
:102DC00085F83E00296C41F02001296485F83C001B
:102DD0000120BDE8F08100BF0020BDE8F0810000C7
:102DE000F0B581B0044600681D4643698FB203EA1E
:102DF0000701B94202D1002001B0F0BD4169164679
:102E000001323CD0490512D47EB300BFFEF7D8FF93
:102E1000411B2068B14203D941693940B9422BD1E5
:102E200041693940B942E6D041694905EED50168AA
:102E300041F4007101606FF4806141610420002160
:102E40002022216384F83D2084F83E10226C104338
:102E5000206484F83C10012001B0F0BD4169394084
:102E6000B942C8D041694905E1D4FEF7A9FF2068FD
:102E700041693940B942F1D02020E0E74169490574
:102E8000D5D441693940B942B5D041694905CED45C
:102E900041693940B942AED041694905C7D4416959
:102EA0003940B942A7D041694905C0D44169394088
:102EB000B942E3D19FE7000070B50368044653F8B8
:102EC000140F000611D40E46481C29D086BB00BF43
:102ED0001868400527D4FEF773FF236853F8140FD2
:102EE000000637D518680006F2D5002070BD00BF77
:102EF00018680006F9D41868400514D4186800064C
:102F0000F3D4186840050ED418680006EDD418688C
:102F1000400508D4186800064FF0000048BF70BD97
:102F200018684005E4D56FF480601860042012E052
:102F3000154603E053F8140F0006D6D41868400570
:102F4000F1D4FEF73DFF401B2368B042F2D9586927
:102F50000006EFD4202000212022216384F83D20A8
:102F600084F83E10226C10432064012084F83C1049
:102F700070BD000070B582B040F29004C2F200044F
:102F8000E568E068401B312806D800BF00F0FEF974
:102F9000E068401B3228F9D343F63C0540F2941018
:102FA000C0F60C056426C2F2000001AA4E210423DB
:102FB00001950096FEF7BCFF6178002818BF481CF9
:102FC0006070E668E168891B012906D800F0DEF927
:102FD000E068801B0228F9D36078C0B2032803D3CD
:102FE000FFF7C8FF00206070E668E068801B0428D7
:102FF00006D800BF00F0CAF9E068801B0528F9D3A5
:1030000040F294106426C2F2000001AA4E2104236B
:1030100001950096FEF78CFF6178002818BF481CC8
:103020006070E668E168891B012906D800F0AEF9F6
:10303000E068801B0228F9D36078C0B2032803D36C
:10304000FFF798FF00206070E668E068801B0428A6
:1030500006D800BF00F09AF9E068801B0528F9D374
:1030600040F294106426C2F2000001AA4E2104230B
:1030700001950096FEF75CFF6178002818BF481C98
:103080006070E568E168491B012906D800F07EF907
:10309000E068401B0228F9D36078C0B2032803D34C
:1030A000FFF768FF00206070E568E068401B0428B7
:1030B00006D800BF00F06AF9E068401B0528F9D384
:1030C00042F62C00C0F60C00019040F294106426E9
:1030D000C2F2000001AA4E2104230096FEF728FF49
:1030E0006178002818BF481C6070E568E168491BDA
:1030F000012906D800F04AF9E068401B0228F9D3FC
:103100006078C0B2032803D3FFF734FF002060705B
:10311000E568E068401B042806D800BF00F036F9D7
:10312000E068401B0528F9D342F62C00C8F68C0055
:10313000019040F294106426C2F2000001AA4E21D0
:1031400004230096FEF7F4FE6178002818BF481C9F
:103150006070E568E168491B012906D800F016F99E
:10316000E068401B0228F9D36078C0B2032803D37B
:10317000FFF700FF0020607040F60C00C8F68C00DE
:10318000019040F294106426C2F2000001AA4E2180
:1031900004230096FEF7CCFE6178002818BF481C77
:1031A0006070E568E168491B012906D800F0EEF877
:1031B000E068401B0228F9D36078C0B2032803D32B
:1031C000FFF7D8FE0020607040F60C00C1F61C002E
:1031D000019040F294106426C2F2000001AA4E2130
:1031E00004230096FEF7A4FE6178002818BF481C4F
:1031F0006070E568E168491B012906D800F0C6F84F
:10320000E068401B0228F9D36078C0B2032803D3DA
:10321000FFF7B0FE00206070E568E068401B022800
:1032200006D800BF00F0B2F8E068401B0328F9D3CD
:1032300040F60C00C6F66C00019040F29410642633
:10324000C2F2000001AA4E2104230096FEF770FE90
:103250006178002818BF481C6070E568E168491B68
:10326000012906D800F092F8E068401B0228F9D343
:103270006078C0B2032803D3FFF77CFE00206070A3
:1032800040F60C00CCF6CC00019040F2941064267D
:10329000C2F2000001AA4E2104230096FEF748FE68
:1032A0006178002818BF481C6070E568E168491B18
:1032B000012905D9C0B203280CD202B070BD00BFED
:1032C00000F064F8E068401B0228F9D36078C0B2CF
:1032D0000328F2D3FFF74EFE0020607002B070BDED
:1032E0002DE9F04782B004460078002848D040F22B
:1032F000941A40F290074FF06408C2F2000A01AE3F
:10330000C2F200074FF0000903E000BF013420784B
:10331000B0B320F00F01000101F10D0209318DF869
:10332000051000F10D0109308DF804208DF806100C
:103330008DF8070050464E2132460423CDF8008018
:10334000FEF7F6FD7978002818BF481C7870FD68F4
:10335000F968491B012903D9C0B20328D6D309E073
:1033600000F014F8F868401B0228F9D37878C0B24E
:103370000328CBD3FFF7FEFD87F80190C6E700BF17
:1033800002B0BDE8F0870000FEE70000F0B587B0AE
:1033900040F29006C2F20006306C00286DD0F06C4E
:1033A00000286AD1FEF70CFDB16D401A022864D3E3
:1033B000FEF706FD716C326DB06550180830C1170C
:1033C00000EB517121F00701401A40F20C01C2F2EA
:1033D000000140F6000411F82020C4F20204306518
:1033E00001EB8007204601210125FEF7E3FC7A78F6
:1033F00020460221FEF7DEFCBA7820460421FEF7C3
:10340000D9FCFA7820460821FEF7D4FC706DB16C27
:1034100001308842706530DBF16900203064F5646A
:1034200059B3D6E9081200240127C0F60604C6E9FC
:103430001071C6E91220C6E91400FEF7C1FCB56A96
:10344000B06535612068A84215D0FEF7CBFB00209F
:10345000CDE901000720CDE904070220069002A86B
:1034600001A9FEF781FA022021462A460023FEF731
:103470004BFBFEF73FFB0020F06107B0F0BD000002
:10348000FEE70000704700007047000080B5FEF7BF
:1034900077FE40F29C00C2F2000001680131016039
:1034A00080BD000070B592B006AC20463021FDF71B
:1034B000D5F8002543F640000595CDE90355CDE943
:1034C00001550095C4F202000168022641F08051C6
:1034D0000160006800F080500090009847F2000002
:1034E0000095C4F20000016841F4404101600068A9
:1034F00000F44040009000980120099010200A90AC
:103500000E904FF4A8700F900420CDE910002046D3
:103510000696CDE90C65FEF7FDFF18B172B600BF47
:10352000FEE700BF0F20CDE901064FF48050CDE942
:10353000040501A802210395FEF7DAFE10B172B668
:10354000FEE700BF12B070BD4EF68850CEF200000C
:10355000016841F47001016070470000B0B5044695
:10356000006804F108030ECB0569194325F44055A2
:103570002A4302616269E3691143C268194349F24F
:103580000C639A431143C1604169A26921F44071FF
:1035900041F20043114340F48062C4F201039A42B5
:1035A000416103D1FEF76AFF02E000BFFEF752FF60
:1035B000E1694FF69C7563681922C0F6FF75B1F595
:1035C000004FA0FB02011FD15A00DB0FFCF77CFE6D
:1035D00048F21F51C5F2EB11A0FB01235A0905F176
:1035E000805302FB0300322303EBC000A0FB010168
:1035F0004FF4F87000EA111000EB0210C1F3421111
:10360000084421688860B0BD9A009B0FFCF75CFEFF
:1036100048F21F51C5F2EB11A0FB01235A0902FB2E
:103620000500322303EB0010A0FB0101F02000EAAB
:10363000511000EB0210C1F3431108442168886067
:10364000B0BD0000FEE7000094B040F2000AC4F2F2
:10365000020AFEF7A3FDFFF725FF002443F630071B
:103660001394CDE91144CDE90F440994C4F2020743
:1036700038680AF5006540F00400386038680F21AA
:1036800000F004000990099809943868002240F07D
:103690008000386038684FF00F0800F08000099013
:1036A00009980994386840F001003860386800F0E3
:1036B0000100099009980994386840F002003860C8
:1036C000386800F00200099009982846FEF772FB5E
:1036D0005046202100224FF02009FEF76BFB4FF4EB
:1036E00000500F904FF404100FAECDE9100428469F
:1036F0003146FEF78FFACDF83C804FF0010828469E
:103700003146CDE910841294FEF784FA50463146D2
:10371000CDE90F98CDE91144FEF77CFA0F94386893
:10372000052140F4800038603868002200F48000F1
:103730000F900F9838200525FEF79EFD3820FEF7E4
:1037400089FD40F2E810AAF5DE31C2F200000C2338
:103750004FF4E13280E81600C0E90344C0E90534C3
:10376000C461FFF7C3F818B172B600BFFEE700BF2F
:1037700040F2EC000123AAF56041C2F20000C0F65D
:10378000007312944FF4803280F8188080F8204043
:10379000C0E90A34C56180F8308080E81600C0E9CD
:1037A00003484461FDF72CFD10B172B6FEE700BF7F
:1037B000002001240F90CDE9104040F2EC00C2F24D
:1037C00000000FA9FDF764FC10B172B6FEE700BF60
:1037D0000220109040F2EC00C2F200000FA90F94FA
:1037E000FDF756FC10B172B6FEE700BF0320109043
:1037F00040F2EC000424C2F200000FA90F94FDF780
:1038000047FC18B172B600BFFEE700BF0820CDE943
:103810000F0440F2EC00C2F200000FA9FDF738FCE3
:1038200010B172B6FEE700BF09200F90052010907E
:103830000720119040F2EC00C2F200000FA9FDF742
:1038400027FC18B172B600BFFEE700BF40F294102B
:10385000AAF5D631C2F2000048F2A06200234FF46C
:103860008047C0F2010280E80E00C0E90337C0E9DA
:103870000533C0E90733FEF7A9FA18B172B600BFE5
:10388000FEE700BFFFF776FB40F2900AC2F2000AA3
:1038900040F2EC000AF12C01C2F200000522FDF713
:1038A000CDFD48F68C00C0F60C000F9040F294104D
:1038B0006427C2F200000FAA4E2104230097FEF7EE
:1038C00037FB9AF80110002818BF481C8AF801003D
:1038D000DAF80C40DAF80C10091B012908D8FFF7B8
:1038E00055FDDAF80C00001B0228F8D39AF8010005
:1038F000C0B2032804D3FFF73DFB00208AF8010083
:1039000047F26120C0F23A00CDF8270046F6537026
:10391000C6F26C10099009A8FFF7E2FC4CF6CC0047
:10392000C0F60C000F9040F294106427C2F2000021
:103930000FAA4E2104230097FEF7FAFA9AF8011015
:10394000002818BF481C8AF80100DAF80C40DAF8A1
:103950000C10091B012908D8FFF718FDDAF80C0034
:10396000001B0228F8D39AF80100C0B2032804D340
:10397000FFF700FB00208AF8010046F65070C6F6FB
:103980007310099046F67410C6F66F600A903A20DC
:103990000024ADF82C0009A8C0F60604FFF7A0FC2F
:1039A000D4F800C00AF12C060021BCF1040F28BF96
:1039B0008C4658CEDAF838209C421D46CAF810C012
:1039C00084BF01212546AE422F4684BF37460221DF
:1039D000BA4288BF0321084611B1012904D0184614
:1039E000844288BF204603469E42184688BF304620
:1039F000AE4298BF0346BA4288BF03469A4288BF88
:103A00001346BA4284BF03461746F81A44F6D4193F
:103A1000B0F5967FC0F600090FAD6BD359F8216061
:103A2000664567D0A6EB0C000328C8BF043810F128
:103A3000030FB8BF0430033006283AD80121814073
:103A400011F0110F1CD111F0220F0BD1012101FA3D
:103A500000F010F0440F2CD0DAF840004FF0FF34A3
:103A600028BB11E0DAF81400DAF84010012401282C
:103A700008BF4FF0FF34D1B94FF4006006E000BF3B
:103A8000DAF84000012490B94FF48060012100224F
:103A9000CAE91014CAE91202CAE91422FEF790F921
:103AA00044F6D4190FADC0F60009CAF85800CAF898
:103AB00014400020CAF81060C0F606000068B0424A
:103AC00018D0FEF78FF80020CDE90E0007201190E6
:103AD00001201290022013900FA80EA9FDF744FFB9
:103AE00000210220C0F6060132460023FEF70CF842
:103AF000FEF700F89FEDA78A9FEDA79A002601E048
:103B0000CAF81860FFF742FC9AF8000078B1FEF797
:103B100057F9DAF80810401A642808D30020C4F2D4
:103B2000020020210022FEF745F98AF80060DAE958
:103B30000B83DAE90D10002442469AED0FAA4345A3
:103B400084BF01241A469346914284BF8B460224C7
:103B5000584588BF032459F82470079714B1012CE5
:103B600004D000E0A046434588BF984641454346FF
:103B700088BF0B46914298BF9846584588BF9846E3
:103B8000404588BF8046584584BF98468346FEF727
:103B900017F9DAF80410401AB0F5FA7FC0F08C81FA
:103BA000DAF81000032819D8DFE800F00212060C3A
:103BB00045F242200F9011E08DF83E6044F65440EB
:103BC0000AE000BF44F642408DF83E6004E000BFCA
:103BD0008DF83E6045F25420ADF83C00B8EE4A0A3C
:103BE00020EE080A80EE090A0AF12C0999E89002F1
:103BF000DAF8385030EE000A10EE100A00F014FE29
:103C0000029440F2302441EC1A0B0FA8C2F20004D7
:103C100044F6EC12069020464021C0F600024B46C6
:103C2000CDE900758DED04ABFCF7C6FB0020C4F2B6
:103C3000020020210122FEF7BDF8FEF7C1F8CAF804
:103C4000080001208AF800002046FCF7E8FC82B258
:103C500040F2E810C2F2000021464FF0FF33FEF7B9
:103C6000AFFEDAF8100003281AD8DFE800F00313DB
:103C7000070D00BF45F24220089011E08DF8226048
:103C800044F654400AE000BF44F642408DF82260FA
:103C900004E000BF8DF8226045F25420ADF820000A
:103CA00048F68C00C7F67C000F9040F294100FADE0
:103CB000C2F200004E212A46042364270097FEF733
:103CC00037F99AF80110002818BF481C8AF801003B
:103CD000DAF80C40DAF80C10091B012909D800BFEA
:103CE000FFF754FBDAF80C00001B0228F8D39AF80F
:103CF0000100C0B2032803D3FFF73CF98AF8016042
:103D000028461121C3A28DED00ABFCF755FB9DF8B1
:103D10003C0000284AD02F4604E000BF0137387825
:103D2000002843D020F00F01000101F10D020931FC
:103D30008DF8391000F10D0109308DF83B0040F28B
:103D400094108DF838208DF83A10C2F200004E2100
:103D50000EAA042364240094FEF7EAF89AF80110EE
:103D6000002818BF481C8AF80100DAF80C40DAF87D
:103D70000C10091B012911D8FFF708FBDAF80C0019
:103D8000001B0228F8D39AF80100C0B20328C5D35B
:103D900007E000BF3333534000F07F45C0B2032833
:103DA000BCD3FFF7E7F88AF80160B7E74CF6CC0020
:103DB000CAF6AC000E9040F29410C2F200004E2100
:103DC0000EAA042364270097FEF7B2F89AF80110B0
:103DD000002818BF481C8AF80100DAF80C40DAF80D
:103DE0000C10091B012908D8FFF7D0FADAF80C00EB
:103DF000001B0228F8D39AF80100C0B2032803D3AD
:103E0000FFF7B8F88AF801602846112183A208ABB1
:103E1000FCF7D2FA9DF83C00002845D02F4603E07D
:103E20000137387800283FD020F00F01000101F160
:103E30000D0209318DF8391000F10D0109308DF8AE
:103E40003B0040F294108DF838208DF83A10C2F201
:103E500000004E210EAA042364240094FEF768F8A3
:103E60009AF80110002818BF481C8AF80100DAF8F7
:103E70000C40DAF80C10091B01290DD8FFF786FA5F
:103E8000DAF80C00001B0228F8D39AF80100C0B23F
:103E90000328C5D303E000BFC0B20328C0D3FFF797
:103EA00069F88AF80160BBE7FDF78AFF44F6D41988
:103EB000C0F60009CAF80400ABEB0800B0F5967F25
:103EC000FFF420AEDAF81000079ADAF84010101A62
:103ED0000328C8BF043810F1030FB8BF0430F8B18D
:103EE000F1B9DAF818104A1C0129CAF81820FFF6AF
:103EF00009AE033006283FF603AE012101FA00F0B7
:103F000010F0110F36D110F0220F29D110F0440F0C
:103F10003FF4F6AD4FF480604FF0FF342DE000BF6A
:103F2000002818BF002905D1002808BFCAF818606A
:103F3000E8E500BF033006283FF6E2AD012101FAB3
:103F400000F010F0110F57D110F0220F4AD110F0ED
:103F5000440F3FF4D5AD4FF480604FF0FF314DE09A
:103F6000DAF814000124012808BF4FF0FF344FF4A1
:103F7000006002E04FF480600124CAF8480000208D
:103F8000CAE91014CAE913000026CAF85400FDF764
:103F900017FF0799CAF858000020CAE90414C0F6B0
:103FA0000600006888423FF4ABADFDF71BFE002021
:103FB0000E900F9007201190012012900220139074
:103FC00028460EA90026FDF7CFFC0021079A022003
:103FD000C0F606010023FDF797FDFDF78BFDCAF83B
:103FE00018608FE5DAF81400012808BF4FF0FF31A0
:103FF0004FF4006002E000BF4FF48060CAF8240074
:1040000007980122CAE90721CAF82800CAF81860EF
:1040100078E500BF252E33665600000025730000AA
:104020005FEA400C08BF91F0000F4FEA8C234FEA83
:10403000C12243EA51514FEA1C5018BF00F5F0402D
:104040004FEA300018BF41F000415FEA6C5C00F0BD
:104050002980BCF1FF3F08BF40F080407047130C3F
:1040600006BF12044FF0100C4FF0000C130E04BFEB
:1040700012020CF1080C130F04BF12010CF1040C16
:10408000930F04BF92000CF1020CD30F04BF520037
:104090000CF1010C11464FF00002A0F11F00A0EB43
:1040A0000C00704711F0004F08BF704731F000411D
:1040B0003FF4D5AF0B0C06BF09044FF0100C4FF0C6
:1040C000000C0B0E04BF09020CF1080C0B0F04BF0F
:1040D00009010CF1040C8B0F04BF89000CF1020CD8
:1040E000CB0F04BF49000CF1010CCCF1200322FAE4
:1040F00003F341EA030102FA0CF2A0EB0C0000F119
:104100000100704723F07F4720F07F4C80EA0300D6
:1041100000F00040ACEB070303F57C5303F1FF0311
:104120002DE9804909B44FEA144324EA03484FEAD1
:10413000154B25EA0B4E0FF2042606EB13273E78AB
:1041400003FB0667C7F5000707FB06F64FEAD646EE
:1041500006F102064FEA543707FB066CCCF1005C0F
:104160004FEA1C472CEA074C0CFB06F507FB06F44C
:1041700004EB15464FEA961649085FEA320234BF4F
:1041800000204FF000404FEAD13706FB07FC4FEA12
:104190001C4C0CFB0BF7D21B03FB0CF761EB07016C
:1041A0000CFB0EF7B0EB074072EB17420CFB08F765
:1041B00034BFA2EB0742B2EB074261EB17414FEA73
:1041C0000C444FEA910706FB07FC4FEA1C4C0CFB22
:1041D0000BF7B0EBC74072EB573203FB0CF734BF61
:1041E000A2EBC742B2EBC74261EB57310CFB0EF7B3
:1041F000B0EBC70072EB57720CFB08F734BFA2EBB1
:10420000C702B2EBC70261EB57714FEA816141EA25
:1042100092114FEA826242EA90124FEA806004EB08
:10422000CC04039F4FEAD13706FB07FC4FEA1C4C36
:104230000CFB0BF7D21B03FB0CF761EB07010CFB2C
:104240000EF7B0EB074072EB17420CFB08F734BFD8
:10425000A2EB0742B2EB074261EB17414FEA8C55E4
:1042600004EB9C244FEA910706FB07FC4FEA1C4C29
:104270000CFB0BF7B0EBC74072EB573203FB0CF7AC
:1042800034BFA2EBC742B2EBC74261EB57310CFB24
:104290000EF7B0EBC70072EB57720CFB08F734BF98
:1042A000A2EBC702B2EBC70261EB57714FEA816123
:1042B00041EA92114FEA826242EA90124FEA80602C
:1042C00015EB4C2544F100044FEAD13706FB07FCFF
:1042D0004FEA1C4C0CFB0BF7D21B03FB0CF761EBFA
:1042E00007010CFB0EF7B0EB074072EB17420CFB1B
:1042F00008F734BFA2EB0742B2EB074261EB17416C
:104300004FEA813141EA92414FEA823242EA9042D9
:104310004FEA80304FEA0C7615EB1C1544F100048F
:1043200048EA03434EEA0B484FF0000EB2EB080C8C
:1043300071EB030724BF624639464EEB0E0E4FF079
:10434000000B0018524149414BEB0B0BB2EB080C30
:1043500071EB03077BF1000B24BF624639464EEB3D
:104360000E0E4FF0000B0018524149414BEB0B0B66
:10437000B2EB080C71EB03077BF1000B24BF624624
:1043800039464EEB0E0E51EA020718BF46F0010601
:1043900016EB0E7655F1000254F1000103D5BDE88D
:1043A0008901BDE80088BDE88901BDE80048B6196B
:1043B000524141EB0101A3F10103704780807F7EF0
:1043C0007D7C7B7A7978777676757473727171708B
:1043D0006F6E6E6D6C6C6B6A6A696868676666653D
:1043E0006464636362616160605F5F5E5E5D5D5CCB
:1043F0005C5B5B5A5A59595858575756565555553C
:104400005454535352525251515050504F4F4F4E9B
:104410004E4D4D4D4C4C4C4B4B4B4A4A4A494949E9
:10442000484848474747474646464545454444442B
:104430004443434343424242424141419C46002B54
:1044400030D477002BD04FEA37071CB503B44FF0B8
:1044500010004FF01001BAF1000F06D0BCF1000FB0
:10446000DCBF40F0080040F008014FF000000FBC36
:10447000BDE810400BF1010BBBF1010F08BF5FEA73
:10448000170722BF12F1010211F101014FF00041A3
:1044900043F1000300F0004043EA00007047F9D305
:1044A0005708D0E746EA06464FEA164613F1400F92
:1044B0001FDD13F1200FDFBF16430A460021203312
:1044C0005B42BED0C3F1200746EA06464FEA1646D5
:1044D00002FA07F746EA070622FA03F2C3F12007B9
:1044E00001FA07F742EA070221FA03F14FF000034D
:1044F000A7E746EA020646EA06464FEA164646EAB5
:104500000106BCBF46EA0646360C4FF000034FF0EA
:1045100000024FF0000194E72DE9804C70B49A46F8
:10452000934691E8380007C831EA400C48BF34EAA6
:10453000430C03D5FFF7E6FDFFF780FFF0BCBDE8B5
:10454000008C2DE9804C70B49A46934691E838006F
:1045500007C810F0804F08BF13F0804F03D100F060
:1045600005F8FFF76BFFF0BCBDE8008C20F07F473B
:1045700023F07F4C80EA030000F0004007EB0C03BF
:10458000A3F57C53A3F1FE0392F0000F00F0B3807B
:1045900095F0000F00F077802DE901494FEA1140B6
:1045A00021EA00484FEA144624EA064700FB06FCCD
:1045B00008FB06F607FB08F818EB06484CEB164C10
:1045C00000FB07F718EB07484CEB17404FEA124B7C
:1045D00022EA0B4E4FEA154625EA06470BFB06FC7E
:1045E0000EFB06F607FB0EFE1EEB064E4CEB164CC2
:1045F0000BFB07F71EEB074E4CEB174B18EB0B08AA
:1046000040F1000018EB0E0B58EB000840F10000E1
:104610008F1A4FF000014FF000063CBFC943661BE4
:1046200014BFB5EB040C00213CBFC943F61B4FEA95
:10463000174427EA04454FEA1C472CEA074C04FBC1
:10464000076205FB07F70CFB05F616EB074642EB86
:10465000174204FB0CFC16EB0C4642EB1C421BEB16
:10466000060658EB020241414EEA8E0E46EA9E06CD
:1046700001D5BDE80189B619524141EB0101A3F111
:104680000103BDE801894FEA144524EA05464FEAD3
:10469000114721EA074C05FB07F406FB07F70CFB63
:1046A00006F111EB074144EB174405FB0CFC11EB41
:1046B0000C4144EB1C444FEA124722EA074C05FB2D
:1046C00007F206FB07F70CFB06F616EB074642EB74
:1046D000174205FB0CFC16EB0C4642EB1C456A1816
:1046E00054F1000148BF7047B619524141EB010136
:1046F000A3F10103704795F0000F37D04FEA114244
:1047000021EA02464FEA144724EA074C02FB07F16C
:1047100006FB07F70CFB06F414EB074441EB1741CB
:1047200002FB0CFC14EB0C4441EB1C414FEA154717
:1047300025EA074C02FB07F506FB07F70CFB06F61C
:1047400016EB074645EB174502FB0CFC16EB0C4637
:1047500045EB1C42121951F1000148BF7047B619D0
:10476000524141EB0101A3F1010370474FEA1445A7
:1047700024EA05464FEA114721EA074C05FB07F1F9
:1047800006FB07F70CFB06F212EB074241EB174161
:1047900005FB0CFC12EB0C4251EB1C414FF00006E8
:1047A00048BF7047921841EB0101A3F10103704724
:1047B00003B401984100009850EAC12018BF0420BA
:1047C0004A0D18BF40F0010040F2FF72B2EB515F9A
:1047D00008BF40F00200012808BF052002B0704762
:1047E00030380A2801D201207047002070470000AD
:1047F00010B500290AD00878002807D00548784469
:10480000FCF722FB002801D0002010BD02487844AC
:1048100010BD0000560200004E0200000808A0F57E
:1048200000114FEA3101704743004FEAD30C4FEAC1
:104830003C0C43401FBF40070CF1605113F0FE4F8A
:1048400070471CF0006F03D10CF00041002070474E
:104850000CF0004343EA507040EACC0010B500F081
:104860000EF800BF000000924FEA0001FFF7D6BF2C
:104870004FF00041A1F500214FF0000070470EF10C
:10488000020E2EF0030E5EF8044B244204D44FEACD
:104890004102B2F17F4F11D84FEA4003B3F17F4F8D
:1048A0000CD80ED14FEAD07C0CEB4C0C0CF1020C66
:1048B000B2F17F4F08BF4CEBD17C04E04FF0080C05
:1048C00001E04FEAD17C0CEB4C0324FA03F404F032
:1048D0000704B4F1040C06D20EEB840CBDE81040C2
:1048E0004CF0010C6047DFE80CF0070802024FF0C3
:1048F0000040A0F5800010BD0846420018BFD2F16C
:10490000807288BF00F0004010BDF1EE100A4FF633
:10491000FF71C0F2C03120EA010040F04070E1EECA
:10492000100A7047FBF7F5BF02400000000000A02E
:104930000000000005400000000000C8000000006A
:104940000C4000000000409C0000000019400000E6
:104950000020BCBE0000000034400000BFC91B8E18
:1049600000000004B5400000504BCFD06607E2CFF6
:10497000010000006C4100003E8251AADFEEA73426
:1049800001000000D9420000DCB5A0E23A301F97D8
:10499000FFFFFFFFB4450000FD25A0C8E9A3C14FFC
:1049A000FFFFFFFFFF3F000000000080000000004D
:1049B000FF3F000000000080000000000000000039
:1049C00000000000010203040607080900000000BF
:1049D00001020304000000000100000002000000CA
:1049E000030000000006101600061016544C3A256D
:1049F0003475202054523A2534752020424C3A25F3
:104A00003475202042523A2534752020536F6C6152
:104A1000723A252E3466562020504F533A25730D96
:104A20000A00536F6C61723A00424C00544C0054BF
:104A300052000000704A0008000000203000000012
:104A4000FC010008A04A00083000002068080000AF
:104A50001C0200081C00000043000000F8FFFFFFDC
:104A60000C0000000E0000000F0000002E000000EF
:104A700001000000100000000024F400010000010B
:104A80000100000001010000000100000001010020
:104A90000000010000000101000000010000000012
:040000050800019955
:00000001FF
